0000009600960001IMPORT                        20170131                                          
0629009600961175244622200505201701311902014502017010120170131000000000001000+1712117475415745304
0629009600965667581722200505201701311902014502017010220170131000000000001000+1710148460835451714
999900960096      000000000002000+             0000004                                          